:03000000021A558C
:0C1A5500787FE4F6D8FD758121021A9C10
:101D2F00121D73121E96121E8712001E121E447E63
:101D3F001D7FDF7BF47A01E4FDFC12190F7E177F04
:101D4F00B27B057A00E4FDFC12190F7E1E7F2F7BFC
:101D5F00E87A03E4FDFC12190F121EAF121B661274
:041D6F000D6180F88A
:1019B5000008103F4002142841213E20282426001B
:1019C50000212D76243A2A0848495F6848480000D6
:1019D50000040408100001017E000010100800003A
:1019E50000005355FD2D2A5A5A2A7C2450501000C8
:1019F500001010505F3E3EDE5E5E3E3F5810100008
:101A050000000232545451517F50505414120000BA
:101A15000015795AFE3254597D62627C62623D003E
:101A25000000105E020430CF754A75CAD768000001
:101A350000000A0672525E52525E5276060A000095
:101A450000021214585851515E5058585412000053
:101CE400C1095002630008103F4002142841213EFC
:051CF400202824260059
:10152000900275E0FF139296EFC313139284E013B9
:1015300013543F139282EF131313541F139280E03E
:10154000C4540F1392B6EFC41354071392B4E0C4FB
:10155000131354031392B2EFC413131354011392D1
:1015600097A3E0FEA3E0FF1392B3EEC313EF1313B0
:1015700092B5900276E0FAA3E0FB7802CEC313CED8
:1015800013D8F91392B7EBAE027803CEC313CE1380
:10159000D8F9139281900276E0FAA3E0FBEAC4F84E
:1015A00054F0C8EBC4540F48139283EBAE02780595
:1015B000CEC313CE13D8F9139285900276E0FAA326
:1015C000E0FBAE027806CEC313CE13D8F913928691
:1015D000EBAE027807CEC313CE13D8F913928790DF
:1015E0000276E0FAEA1392A7EAC3131392A6EA136B
:1015F00013543F1392A5EA131313541F1392A4EA32
:10160000C4540F1392A3EAC41354071392A2EAC45A
:10161000131354031392A1EAC41313135401139226
:02162000A02206
:0E1E780000007F017EEA7D71DDFEDEFCDFFAF8
:011E86002239
:101D7300E4F9FC90021AF07401A801088002C3334D
:101D8300D8FC900275F0E4FC74017E00A80408807E
:101D930005C333CE33CED8F9900277F0EE900276B6
:101DA300F0121520121E780CECB410DC09E9B4080B
:011DB300C669
:011DB400220C
:0E1E9600E4900276F0A3F0900275F0021520A1
:101E5600438E40438910758B40758DEDD28ED2AB83
:011E66002259
:101AE100121E96900273E0FF2463F582E43402F53E
:101AF10083E0D39408400D74632FF582E43402F53A
:101B0100837408F0900273E02463F582E43402F5F3
:101B110083E0FDD394004034900273E0FF74017EB2
:101B210000A807088005C333CE33CED8F9900277D9
:101B3100F0EE900276F0C374089DFF74FFA80708C9
:101B41008002C313D8FC900275F08007E4900276FE
:101B5100F0A3F0121520900273E004F0E0C394109A
:051B61004002E4F02247
:101C4700AD07121E96900273E0FC74017E00A80493
:101C5700088005C333CE33CED8F9900277F0EE90E3
:101C67000276F0EDC454F024B5F582E43419F58317
:101C7700E5822CF582E43583F583E493900275F0D1
:101C8700121520900273E004F0E0C394104002E4C0
:021C9700F02239
:101E2F00900279E0600E900278E004F0E0C3940A2B
:051E3F004002E4F02266
:03001E00021E5669
:03001B00021C992B
:101C9900C0E0C083C082C0D075D000C000C002C0FF
:101CA90003C004C005C006C007758B40758DED9053
:101CB9000279E07005121AE18008900278E0FF12BB
:101CC9001C47D209D007D006D005D004D003D002D2
:0B1CD900D000D0D0D082D083D0E03209
:101DB5006B657920646F776E0D0A006B657920720B
:101DC500656C656173650D0A006B6579206C6F6ED6
:0A1DD500672070726573730D0A0039
:101CF900410279004102780041027A0041027D01E6
:0C1D090041027E0041027C0041027B0090
:101DDF0090027AE0146003048008D293E490027AB0
:0B1DEF00F022C29390027A7401F022EF
:1017B20090027BE0FFD394004004A3E004F0A292E5
:1017C200E433FE90027DE06E6018A3E0FE04F0EECA
:1017D200C394034012A292E43390027DF0E4A3F09A
:1017E2008005E490027EF0EF14602224FE6046241D
:1017F20003706D90027DE070677BFF7A1D79B512F0
:101802000949E490027CF090027B04F02290027D70
:10181200E060127BFF7A1D79C0120949900278E0DC
:1018220004F0E4803390027CE0D394C8403290020A
:101832007B7403F02290027DE060257BFF7A1D79A4
:10184200CE120949900279E0700404F08005E49018
:101852000279F0E4900278F090027CF090027BF042
:011862002263
:080003008F993099FDC299228A
:0D000E00759850438E05759CD9438E1022C5
:03002300021EA416
:0B1EA400309802C298309902C29932B7
:101E6700438E80438901758A40758CA2D28CD2A992
:011E77002248
:101BE200E4FEEF75F008A4244BF582E43402F58399
:101BF200A3E0FAA3E04A70027E02EF75F008A42483
:101C02004BF582E43402F583E4F0A3F0A3F0EF7520
:101C1200F008A4244EF582E43402F583E4F0A3F044
:101C2200EF75F008A42450F582E43402F583E4F061
:101C3200A3F0EF75F008A42452F582E43402F58390
:041C4200E4F0AF0615
:011C4600227B
:101E4400E4FDAF05121BE20DEDB403F612000E0221
:021E54001E6707
:031EAF00D2AF228D
:10190F0090021AEEF0A3EFF0A3ECF0A3EDF0A3EA30
:04191F00F0A3EBF056
:10192300E4FFFEEE75F008A4244BF582E43402F5DF
:1019330083A3E0FAA3E04A706990021AE0FCA3E0F3
:10194300AA04F9EE75F008A4244BF582E43402F5F9
:10195300837401F0A3EAF0A3E9F090021CE0FCA376
:10196300E0FDEE75F008A4244EF582E43402F5831D
:10197300ECF0A3EDF090021EE0FCA3E0FDEE75F0A9
:1019830008A42450F582E43402F583ECF0A3EDF0CF
:10199300EE75F008A42452F582E43402F583E4F0F2
:1019A30080090EEE64036003021926EEB403027F7E
:0119B3000132
:0119B4002210
:101B6600E490021BF090021AF090021AE0FFC39470
:101B7600035068EF75F008A42452F582E43402F5A8
:101B860083E0D39400404C90021AE075F008A42438
:101B96004BF582E43402F583A3E0FAA3E0F91208D8
:101BA600A890021AE0FF75F008A42452F582E434E6
:101BB60002F583E014F0EF75F008A42450F582E4F2
:101BC6003402F583E0FEA3E04E700890021AE0FFAF
:0B1BD600121BE290021AE004F0808E67
:011BE10022E1
:03000B00021622B8
:10162200C0E0C0F0C083C082C0D075D000C000C08E
:0B16320001C002C003C004C005C007D7
:10163D00C28C758A40758CA2D28CE4FFEF75F008D0
:10164D00A4244BF582E43402F583E0FBA3E0FAA376
:10165D00E0F9EA494B6066EF75F008A4244EF58277
:10166D00E43402F583E0FCA3E04C703CEF75F00828
:10167D00A42452F582E43402F583E004F0EF75F012
:10168D0008A42450F582E43402F583E0FCA3E0FDC8
:10169D004C602AEF75F008A4244EF582E43402F56F
:1016AD0083ECF0A3EDF08015EF75F008A4244EF552
:1016BD0082E43402F58374FFF5F01207570FEF64DF
:0616CD0003600302164950
:1016D300D007D005D004D003D002D001D000D0D0A1
:0916E300D082D083D0F0D0E032B7
:1013DD007374617465204F7665720D0A006D696EC8
:1013ED003A25660D0A002A2A2A2A2A2A2A2A2A2A70
:1013FD002A2A2A2A2A2A2A2A2A2A2A2A2A2A2A2A40
:10140D002A2A2A2A2A0D0A0076616C75653A256604
:10141D000D0A003F800000000000003F7EC56DBD3D
:10142D00C8B4393F7B15B5BE47C84B3F74F766BE90
:10143D0094A2343F6C84B6BEC3F1413F61C433BE48
:10144D00F15B573F54DD2FBF0E3BCD3F45E354BFFE
:10145D0022680A3F350481BF3504813F22680ABFE7
:10146D0045E3543F0E3BCDBF54DD2F3EF15B57BFDF
:10147D0061C4333EC3F141BF6C84B63E94A234BF08
:10148D0074F7663E47C84BBF7B15B53DC8B439BF31
:10149D007EC56D00000000BF800000BDC8B439BF1F
:1014AD007EC56DBE47C84BBF7B15B5BE94A2343FFC
:1014BD0074F766BEC3F141BF6C84B6BEF15B57BF16
:1014CD0061C433BF0E3BCDBF54DD2FBF22680ABFB1
:1014DD0045E354BF350481BF350481BF45E354BF97
:1014ED0022680ABF54DD2FBF0E3BCDBF61C433BE92
:1014FD00F15B57BF6C84B6BEC3F141BF74F766BED6
:10150D0094A234BF7B15B5BE47C84BBF7EC56DBD1C
:03151D00C8B43916
:101D150042000A000042000C0000410000004100A2
:091D250001004402167F7FFFEE6D
:1016EC00900237E075F008A42424F582E43414F554
:1016FC0083120815900233E0F8A3E0F9A3E0FAA3F3
:10170C00E0FB12011EC004C005C006C007900237E2
:10171C00E075F008A42420F582E43414F583120853
:10172C001590022FE0F8A3E0F9A3E0FAA3E0FB1276
:10173C00011ED003D002D001D0001200299000026B
:10174C00120825900237E075F008A42420F582E4F5
:10175C003414F583120815900233E0F8A3E0F9A3D2
:10176C00E0FAA3E0FB12011EC004C005C006C007CE
:10177C00900237E075F008A42424F582E43414F5C3
:10178C008312081590022FE0F8A3E0F9A3E0FAA366
:10179C00E0FB12011ED003D002D001D00012002DAC
:0617AC0090000602082572
:041E1500AB05A90769
:101E19007F017E00E4FAEAC39B500AE9FD7C0012C7
:051E290006F00A80F143
:011E2E002291
:0E10C90090021BEBF0A3EAF0A3E9F0A3EDF018
:1010D7009002237401F07F01ED7801088002C313A9
:1010E700D8FCFD64016008900223E004F080E7E487
:1010F700900221F090021EE014FF900221E0FED33F
:101107009F40030211F2E4900220F0900223E09046
:10111700021FF090021FE0FFD394004023EF14FF5B
:10112700EE5401FDA807088002C333D8FCFF9002E4
:1011370020E02FF0EEC313FE90021FE014F080D3DF
:10114700900220E0FFA3E0C39F40030211E9EF757F
:10115700F008A4FF90021BE0FBA3E0FAA3E02FF93D
:10116700EA35F0FA78277C027D017E007F081206B7
:1011770072900221E075F008A4FF90021BE0FBA328
:10118700E0FAA3E02FF9EA35F0FAC003C002C00184
:10119700900220E075F008A4FF90021BA3E0FAA3D9
:1011A700E02FF9EA35F0A801FCAD03D001D002D059
:1011B700037E007F08120672900221E075F008A4F2
:1011C700FF90021BE0FBA3E0FAA3E02FF9EA35F05A
:1011D700A801FCAD037B017A0279277E007F081204
:1011E7000672900221E004F00210FB9002227401C3
:1011F700F0900223E0FF900222E0FDD39F4003021C
:1012070013DC7F02121E15900224EFF0E0C313A334
:10121700F0E4900220F0900225E0FF900220E0FE2B
:10122700C39F40030213D390021FEEF090021EE00B
:10123700FFA3E0C39F40030213CA900225E0FF907B
:10124700021FE02F900226F0E075F008A4FF90023D
:101257001BE0FBA3E0FAA3E02FF9EA35F0FA782FB9
:101267007C027D017E007F0812067290021EE0FD5F
:101277007C00900220E0FF7E001206F0900224E03E
:10128700FD120702900237EFF01216EC78277C0266
:101297007D017B017A0079027E007F081206729039
:1012A700021BE0FBA3E0FAA3E0F990021FE075F050
:1012B70008A4F58285F08312079B900227E0F8A324
:1012C700E0F9A3E0FAA3E0FB12002990021BE0FB80
:1012D700A3E0FAA3E0F9900226E075F008A4F582EE
:1012E70085F0831207E590021FE075F008A429F93D
:1012F700EA35F0FA90000412079B90022BE0F8A35E
:10130700E0F9A3E0FAA3E0FB120029C006C00790AA
:101317000226E075F008A4FF90021BE0FBA3E0FAA9
:10132700A3E02FF9EA35F0FA900004D007D00612AF
:1013370007E590021BE0FBA3E0FAA3E0F990021F88
:10134700E075F008A4F582E92582F9EA35F0FAC0DC
:1013570003C002C00112077B900227E0F8A3E0F95F
:10136700A3E0FAA3E0FB12002DD001D002D00312B4
:1013770007CB90021FE075F008A4FF90021BE0FB6B
:10138700A3E0FAA3E02FF9EA35F0FAE92404F9E437
:101397003AFAC003C002C00112077B90022BE0F8A3
:1013A700A3E0F9A3E0FAA3E0FB12002DD001D002DD
:1013B700D0031207CB900224E0FF90021FE02FF02A
:1013C700021233900220E004F002121D900222E084
:0513D70004F00211F812
:0113DC0022EE
:101DFA00EF1FAA0670011E4A60107C137D88ED1D34
:0A1E0A00AA0470011C4A60E880F48D
:011E140022AB
:0F1E8700759D30E4F5BD75BC807F02FE021DFA2B
:100D6100E490021AF0900001E01208820D8F000D4C
:100D7100A1010DE3020DEF030E820A0EB20B0EC0AC
:100D81000C0F630D0FF50E10760F000010C820092F
:100D9100030210C8C20975BC8C9000017401F022D5
:100DA100E5BC20E4030210C853BCEFAFBD90000ABC
:100DB100E4F0A3EFF090000AE0FEA3E07802C33371
:100DC100CE33CED8F9FF90000AEEF0A3EFF0ADBE1E
:100DD100EF4DFF90000AEEF0A3EFF09000017402D6
:100DE100F022C20975BC8D9000017403F022E5BCAC
:100DF10020E4030210C853BCEFAFBD90000CE4F037
:100E0100A3EFF090000CE0FEA3E07802C333CE33F1
:100E1100CED8F9FF90000CEEF0A3EFF0ADBEEF4D90
:100E2100FF90000CEEF0A3EFF090000CE0FEA3E0C9
:100E3100FF90000BE02FFF90000AE03EFEEF7803E9
:100E4100C333CE33CED8F9FDAC06E412033690009D
:100E510000E075F008A4240EF582E5F03400F58376
:100E6100120825900000E004F0E0C39441E4400E34
:100E7100F0A3740AF07BFF7A1379DD0209490210AD
:100E8100C4E490021AF090021AE0FFC39441501E8C
:100E910075F008EFA42412F582E5F03400F5831211
:100EA10008310000000090021AE004F080D802101E
:100EB1006F7B017A00790E7D401210C902106F908C
:100EC100021A7401F090021AE0FFC3942140030258
:100ED1000F5275F008EFA42412F582E5F03400F505
:100EE10083E0FCA3E0FDA3E0FEA3E0FFA804A905C5
:100EF100AA06FB12011EC004C005C006C00790026D
:100F01001AE075F008A4240EF582E5F03400F583AB
:100F1100E0FCA3E0FDA3E0FEA3E0FFA804A905AA6D
:100F210006FB12011ED003D002D001D00012002D09
:100F310012186790021AE075F008A4240EF582E5F4
:100F4100F03400F58312082590021AE004F0020E35
:100F5100C6900001E004F09002161208317F7FFF75
:100F6100EE2290021A7401F090021AE0FFC394215C
:100F7100505A75F008EFA4240EF582E5F03400F51F
:100F810083E0FCA3E0FDA3E0FEA3E0FF900216E0F6
:100F9100F8A3E0F9A3E0FAA3E0FB1202C460254044
:100FA1002390021AE075F008A4240EF582E5F034CE
:100FB10000F583E0FCA3E0FDA3E0FEA3E0FF9002C7
:100FC1001612082590021AE004F0809C7BFF7A1328
:100FD10079EA900216E0FCA3E0FDA3E0FEA3E0FFA6
:100FE10090021E1208251209497BFF7A1379F31228
:100FF1000949807A90021A7401F090021AE0FFC345
:101001009421506A75F008EFA4240EF582E5F034BE
:1010110000F583C083C082E0FCA3E0FDA3E0FEA352
:10102100E0FF900216E0F8A3E0F9A3E0FAA3E0FBE9
:10103100120227D082D0831208257BFF7A147915FA
:1010410090021AE075F008A4240EF582E5F0340050
:10105100F583E0FCA3E0FDA3E0FEA3E0FF90021E08
:1010610012082512094990021AE004F0808C9000C0
:1010710001E004F022E490021AF090021AE0FFC3AA
:101081009410503E75F008EFA4241EF582E5F0346B
:1010910000F583E0FCA3E0FDA3E0FEA3E0FFE4FB99
:1010A100FA798078BF12002D12036F90021AE024A2
:1010B10063F582E43402F583EFF090021AE004F064
:0710C10080B8E4900001F08B
:0110C8002205
:100026000203DBE86480F8E933E83360110460F02A
:10003600ED33EC337009E8FCE9FDEAFEEBFF220440
:1000460060DED3EB9FEA9EE99DE8C2E78CF0C2F73B
:1000560095F0400CE8CCF8E9CDF9EACEFAEBCFFB07
:100066001203A685D0F05804700320D5B3E80470B7
:10007600075002B2D50203E592D5EC0460F7E4CC52
:10008600C0E0C398F8603B94186008400DD0E0FBD0
:100096000203BDE4FBFAC9FC8028E830E406E4C9A3
:1000A600FBE4CAFCE830E305E4C9CACBFCE8540724
:1000B6006010F8C3E913F9EA13FAEB13FBEC13FC2F
:1000C600D8F130F52FC3E49CFCEF9BFFEE9AFEEDD2
:1000D60099FDD0E0FBEF4E4D4C701222DB0302037C
:1000E600E2EC2CFCEF33FFEE33FEED33FDED30E7B3
:1000F600EB0203BDEF2BFFEE3AFEED39FDD0E0FB40
:1001060050130BBB00030203E5ED13FDEE13FEEFE8
:0801160013FFEC13FC0203BD12
:10011E00EC4D6011E8497017ED33EC3304600DE4DB
:10012E00FCFFFEFD22E933E8330470F80203DB1214
:10013E0003A658046009E4CC248150062850090215
:10014E0003E52840030203E2C0E0EB4A7044B980A5
:10015E0006D0E0FB0203D1EF4E701CBD8008EBFF12
:10016E00EAFEE9FD80EBE98DF0A4FEE5F002020760
:10017E00E9CDF9EAFEEBFFEF89F0A4FCE5F0CE89BC
:10018E00F0A42EFFE435F0CD89F0A42DFEE435F079
:10019E008067EF4E7005BD80D780C3EF8BF0A4ACA7
:1001AE00F0EE8BF0A42CFCE435F0F8EF8AF0A42CE2
:1001BE00E5F038FCE433CB8DF0A42CFCE5F03BF8F5
:1001CE00EE8AF0A42CFCE5F038F8E433CF89F0A4E5
:1001DE002CFCE5F038CF3400CE89F0A42FFFE5F0EB
:1001EE003EFEE433C98DF0A42EFEE5F039CD8AF043
:1001FE00A42FFFE5F03EFEE43DFD33D0E0FB5007BB
:10020E000BBB000F0203E5EC2CFCEF33FFEE33FECD
:06021E00ED33FD0203BDFB
:100224000203E5EC5D046005E8590470030203DB96
:100234001203A6580460F6EC4860F2EC7004FDFE6C
:10024400FF22C860DB2481C85009C39860025006AD
:100254000203E29850CAF582E9294B4A7005AB8241
:100264000203D175F0007C1A7880C3EF9BEE9AEDFF
:1002740099400DC3EF9BFFEE9AFEED99FDE842F025
:10028400DC23ACF0D0E0FFD0E0FED0E0FDAB822078
:10029400E7101BEB60BAEC2CFCEF33FFEE33FEED02
:1002A40033FD0203BDE803F830E705C0F075F00044
:1002B400EF2FFFEE33FEED33FD40B830E7C280AAE6
:1002C40074F8CC6480CCC86480C8F582046043C3ED
:1002D400EB9FF5F0EA9E42F0E99D42F0E89C45F080
:1002E40060305018E5825FFFE582F42B5582FB50A5
:1002F400210ABA001D09B90019088016E5825BFBC2
:10030400E582F42F5582FF50090EBE00050DBD0095
:10031400010CC3EB9FF5F0EA9E42F0E99D42F0E840
:0D0324009C45F06007CC4820E701B3EC22B7
:1003310075F020800E75F010800575F0087D007E47
:10034100007F003392D530D50312076DEC33401096
:10035100EF33FFEE33FEED33FDEC33FCD5F0ED2250
:0E036100E5F0247EA2D513CC92E7CDCEFF228C
:10036F00EDD2E7CD33EC3392D524814006E4FFFE86
:10037F00FDFC22FCE4CFCECDCC24E0501174FF80E5
:10038F00EDC3CC13CCCD13CDCE13CECF13CF047082
:07039F00F030D5DE02076D0E
:1008DE00E508241EF582E43402F583E00508229033
:1008EE00021B30070390021EE475F001120862022B
:1008FE0006982000E97F2ED2008018EF540F249026
:10090E00D43440D4FF30040BEF24BFB41A0050038C
:10091E002461FFE50960021509050CE50C7002055E
:10092E000B30070E90021BE475F001120862EF0205
:10093E0006DE0200037403D2078003E4C207F50843
:10094E0090021B120879E4F509F50BF50CE5096028
:10095E00077F2012092180F5750AFFC201C200C26D
:10096E0002C203C205C206C2081208EDFF700D30A6
:10097E0007057F00120932AF0CAE0B22B4255FC201
:10098E00D5C2041208EDFF24D0B40A00501A75F037
:10099E000A780930D50508B6FF0106C6A426F6204A
:1009AE00D5047002D20380D924CFB41A00EF5004BC
:1009BE00C2E5D204020C24D20180C6D20080C0D27D
:1009CE000280BCD2D580BAD20580B47F2012092114
:1009DE002002077401B5090040F11208DEFF12096A
:1009EE002102095BD208D20680951208DEFB12089E
:1009FE00DEFA1208DEF94A4B700679227A0D7BFF79
:100A0E0020022EE509602A7E008E82758300120672
:100A1E00B160060EEE650A70F0C2D5EBC0E0EAC01A
:100A2E00E0E9C0E0EE120C85D0E0F9D0E0FAD0E0BB
:100A3E00FB120698FF60AAEBC0E0EAC0E0E9C0E056
:100A4E00120921D0E02401F9D0E03400FAD0E0FB05
:100A5E00E50A0460DCD50AD98087D20280A2120C86
:100A6E006760F7E50A7001041203F0A90A600DE54C
:100A7E000A600914F50A120D0FEF60F3EA30E7026F
:100A8E00F404C3995079EAF4250A0430E701E4042A
:100A9E00F50A800D120C6760C1EA050A250A1203D9
:100AAE00F0EA90024AF030E701E4250A04D50A0480
:100ABE0020050114120C85E4C0E0120D0F90024ABD
:100ACE00E0601320E70714F0120909802204F0D029
:100ADE00E014C0E07F00120909E50A600712090060
:100AEE00150A800B300503120900D0E002095BD015
:100AFE00E00480C4120C67609EE50A041203F090B5
:100B0E00024AEAF0E50A2005026001042404120CF0
:010B1E008551
:100B1F0074FF04C0E0120D0F120909E50A20050247
:100B2F006003120900D0E0B50AE87F45120913905F
:100B3F00024AE07F2B30E7047F2DF404C0E0120956
:100B4F0021D0E075F00A84C0F012090AD0E0120932
:100B5F000A02095B791080027908C206C208800870
:100B6F00D2D5790A8004790AC2D5E50A047002F554
:100B7F000AE4FAFDFEFF1208DEFC7B0820011312C7
:100B8F0008DEFD7B1030000A1208DEFE1208DEFFC1
:100B9F007B20EC3382D592D55013C3E43000069FEF
:100BAF00FFE49EFEE42001039DFDE49CFCE4CBF8F2
:100BBF00C201EC700CCFCECDCCE824F8F870F380E6
:100BCF0017C3EF33FFEE33FEED33FDEC33FCEB33A6
:100BDF00FB994002FB0FD8E9EB300105F8D0E0C4D8
:100BEF0048B201C0E00AEC4D4E4F78207B0070C236
:100BFF00EAB50A0040BCC0E0120C87D0F0D0E0206C
:100C0F000104C4C0E0C4B201C0F012090AD0F0D58B
:100C1F00F0EB02095B12088209F8530B635809C9FC
:100C2F004C09C5420B674F0B6F440B6F4909DE43ED
:100C3F000B75550AA2460B02450A6C470D42500927
:100C4F00CD2D09D12E09F42B09D52309F2200D2B17
:100C5F002A098D48000009ECE50AB4FF03750A065E
:100C6F001208DEFC1208DEFD1208DEFE1208DEFF9F
:100C7F0090024302042D790AA2D5200314300509EE
:100C8F00B910020404B9080104A2D52006025001CC
:100C9F00042002689202B509005034C0E07F203072
:100CAF0003197F30A20272067205500F120CDEC2BA
:100CBF0002C206C205C2087F30800F300503E9C0AB
:100CCF00E0120921300503D0E0F9D0E0B509CC30AE
:100CDF0005177F30B9100C1209217F583004077F98
:100CEF00788003B908031209213002057F2D02090C
:100CFF00217F202008F87F2B2006F322920280CF3D
:100D0F007F00B40700500B2443F582E43402F583CF
:100D1F00E0FF22286E756C6C2900D2011208DE30BC
:100D2F0001F8C201780930D50108F602098D2D505E
:100D3F004349581208DE2403B405004001E4900D26
:100D4F003D93120912743A120912D2037509040263
:020D5F000B6324
:101863000203DB22EDA2E7D2E7F9EC3340F260F3A7
:10187300B4FF08ED547F70E80203E5F82481C2E069
:10188300C0E0F40428FAC313FCED92E7FD90021BB9
:10189300120825EEA2E7E9BA7F02C31334009400CD
:1018A300FA75F091A4E5F013F494FE8AF0A433E5FD
:1018B300F033248CD313FDE492E7FE7F007C3F7565
:1018C3008302ECC0E0F8EDC0E0F9EEC0E0FAEFC04F
:1018D300E0FB8583F090021B12080985F083120256
:1018E30027D0E0FBD0E0FAD0E0F9D0E0F812002DE9
:1018F300ED6480FD30E7011CD583C7ED33CC33F8AD
:0C190300D0E0A2E71328C313CC13FD2290
:1003A600E9D2E7C933E833F892D5EDD2E7CD33EC9D
:0703B60033FC5002B2D52216
:1003BD00EC30E7100FBF000C0EBE00080DBD0004A1
:1003CD000BEB6014A2D5EB13FCED92E7FD2274FF4D
:1003DD00FCFDFEFF22E480F8A2D574FF13FC7D80A6
:0303ED00E480EFBA
:1003F000F920E73624F950037907E4F42402FBE5F9
:1004000082158270021583DBF6E024FB501BE96045
:1004100014E4F0E582158270021583E004F0B40A5A
:0D04200008E4F0D9EE7401F00A22C2D522E2
:10042D00ED33EC3392D5FA602AB4FF33EDC2E77B9E
:10043D00FF60067A047952E4227A04795B20D504B0
:10044D007A047956224E614E002B494E46002D49B5
:10045D004E4600E47A08F0A3DAFC7B00740722C054
:10046D0083C082ECC0E0EDC0E0EEC0E0EFC0E0EA9A
:10047D0075F010A4CAABF075F04DA42BFBE435F06C
:10048D00FCEA2410FAEB34C5FBEC34D9FCEDC2E7E1
:10049D00FF75F056A4F42411C5F0F434C58FF0A403
:1004AD002AE5F03BE43CF020E714120562D0E0FFB2
:1004BD00D0E0FED0E0FDD0E0FC1202278014F40461
:1004CD00120562D0E0FFD0E0FED0E0FDD0E0FC12DE
:1004DD00011ED082D083E0FAEDD2E7CD33EC332488
:1004ED0082FBE4C3CF33CFCE33CECD33CD33DBF36D
:1004FD007B0775F00A846004F0A31B0AE5F0F0A3F6
:10050D008FF0740AA4FFACF08EF0740AA42CFEAC2C
:10051D00F050010C8DF0740AA42CFDE435F0F0A31D
:05052D00DBDE74072273
:100532003F8000004120000042C80000447A0000D1
:10054200461C400047C35000497424004B18968053
:100552004CBEBC205A0E1BCA6753C21C749DC5AE4A
:10056200FB60065407601C2323120590EB5438608D
:100572000912057C12058B12011EECF8EDF9EEFA58
:10058200EFCB22EB12058B80F1543803241C90052B
:1005920032FE93FC0EEE93FD0EEE930ECE93FF22EF
:101A6100021D2FE493A3F8E493A34003F68001F24F
:101A710008DFF48029E493A3F85407240CC8C33386
:101A8100C4540F4420C8834004F456800146F6DF55
:101A9100E4800B0102040810204080901CE4E47EE5
:101AA100019360BCA3FF543F30E509541FFEE4934A
:101AB100A360010ECF54C025E060A840B8E493A311
:101AC100FAE493A3F8E493A3C8C582C8CAC583CA3C
:101AD100F0A3C8C582C8CAC583CADFE9DEE780BEF4
:011D2E0000B4
:1005A200E709F608DFFA8046E709F208DFFA803E3B
:1005B20088828C83E709F0A3DFFA8032E309F60828
:1005C200DFFA8078E309F208DFFA807088828C8390
:1005D200E309F0A3DFFA806489828A83E0A3F60844
:1005E200DFFA805889828A83E0A3F208DFFA804C1E
:1005F20080D280FA80C680D4806980F280338010F5
:1006020080A680EA809A80A880DA80E280CA80335D
:1006120089828A83ECFAE493A3C8C582C8CCC583D5
:10062200CCF0A3C8C582C8CCC583CCDFE9DEE780A5
:100632000D89828A83E493A3F608DFF9ECFAA9F024
:10064200EDFB2289828A83ECFAE0A3C8C582C8CC7A
:10065200C583CCF0A3C8C582C8CCC583CCDFEADE93
:10066200E880DB89828A83E493A3F208DFF980CCF5
:1006720088F0EF60010E4E60C388F0ED2402B404EE
:100682000050B9F582EB2402B4040050AF23234595
:0606920082239005F273C3
:10069800BB010689828A83E0225002E722BBFE0260
:0906A800E32289828A83E4932293
:1006B100BB010CE58229F582E5833AF583E02250FE
:1006C10006E92582F8E622BBFE06E92582F8E22248
:0D06D100E58229F582E5833AF583E4932262
:1006DE00BB010689828A83F0225002F722BBFE01FB
:0206EE00F322F5
:1006F000EF8DF0A4A8F0CF8CF0A428CE8DF0A42E1E
:02070000FE22D7
:10070200BC000BBE0029EF8DF084FFADF022E4CCDB
:10071200F875F008EF2FFFEE33FEEC33FCEE9DECA4
:10072200984005FCEE9DFE0FD5F0E9E4CEFD22EDEA
:10073200F8F5F0EE8420D21CFEADF075F008EF2F34
:10074200FFED33FD4007985006D5F0F222C398FD25
:050752000FD5F0EA22C2
:10075700C5F0F8A3E028F0C5F0F8E582158270022D
:060767001583E038F022CA
:0E076D00C3E49FFFE49EFEE49DFDE49CFC229D
:10077B00BB010789828A830208095005E9F8020840
:10078B00AEBBFE05E9F80208BA89828A8302081516
:10079B00BB010DE58229F582E5833AF58302080951
:1007AB005007E92582F80208AEBBFE07E92582F85F
:1007BB000208BAE58229F582E5833AF5830208152A
:1007CB00BB010789828A830208255005E9F80208D4
:0A07DB00C6BBFE05E9F80208D222B1
:1007E500BB010DE58229F582E5833AF583020825EB
:1007F5005007E92582F80208C6BBFE07E92582F8FD
:040805000208D222F1
:0C080900E0FCA3E0FDA3E0FEA3E0FF2262
:10081500E493FC740193FD740293FE740393FF2229
:0C082500ECF0A3EDF0A3EEF0A3EFF02246
:10083100A8828583F0D083D082120848120848121A
:100841000848120848E473E493A3C583C5F0C5833F
:10085100C8C582C8F0A3C583C5F0C583C8C582C811
:010861002274
:10086200F8E0FBA3A3E0F925F0F0E582158270021F
:070872001583E0FA38F022C3
:09087900EBF0A3EAF0A3E9F02280
:10088200D083D082F8E4937012740193700DA3A305
:1008920093F8740193F5828883E473740293686019
:0608A200EFA3A3A380DF19
:0608A8008A838982E473DB
:0C08AE00E6FC08E6FD08E6FE08E6FF2276
:0C08BA00E2FC08E2FD08E2FE08E2FF227A
:0C08C600ECF608EDF608EEF608EFF6225E
:0C08D200ECF208EDF208EEF208EFF22262
:00000001FF
